:100000000C9443190C9400000C9400000C94000014
:100010000C9400000C9400000C9400000C94000060
:100020000C9400000C9400000C9400000C94000050
:100030000C9400000C9400000C9400000C94000040
:100040000C9400000C9400000C9400000C94000030
:100050000C94000080004000000000000000000040
:100060000000000000000000000000000000000090
:100070000000000000000000000000000000000080
:100080000000000000000000000000000000000070
:100090000000000000000000000000000000000060
:1000A0000000000000000000000000000000000050
:1000B0000000000000000000000000000000000040
:1000C0000000000000000000000000000000000030
:1000D0000000000000000000000000000000000020
:1000E0000000000000000000000000000000000010
:1000F0000000000000000000000000000000000000
:10010000000000000000000000000000040E0E0EC1
:100110001E3E3FFDFDF9F9F97D1E0E0A02000800A2
:10012000101010300000000000000000000000006F
:1001300000000000000000000000000000000000BF
:1001400000000000000000000000000000000000AF
:10015000000000000000000000000000000000009F
:10016000000000000000000000000000000000008F
:10017000000000000000000000000000000000007F
:100180000000000000000000406070787C7C7EFE73
:10019000FEFEFFFFFFFFFFF28000000000000000F6
:1001A000000000F0E043FC00000000000000000040
:1001B000000000000000000000000000000000003F
:1001C000000000000000000000000000000000002F
:1001D000000000000000000000000000000000001F
:1001E000000000000000000000000000000000000F
:1001F00000000000000000000000000000000000FF
:100200000000000000000000000080C0F0F8F83C92
:100210003C3C3C3FFFFFFFFFFFFFFBC58080808031
:100220008080002100080F0C00000000000000008A
:1002300000000000000000000000000000000000BE
:1002400000000000000000000000000000000000AE
:10025000000000000000000000000000000000009E
:10026000000000000000000000000000000000008E
:10027000000000000000000000000000000000007E
:100280000000000000000000000001000000E0404D
:1002900040404000C0E0FAFAFFC7C3C1FF80000041
:1002A000000000000000000000000000000000004E
:1002B000000000000000000000000000000000003E
:1002C000000000000000000000000000000000002E
:1002D000000000000000000000000000000000001E
:1002E000000000000000000000000000000000000E
:1002F00000000000000000000000000000000000FE
:1003000000000000000000000000000000000100EC
:10031000000000093DB4E0E0010707070301000009
:1003200000000000000000000000000000000000CD
:1003300000000000000000000000000000000000BD
:1003400000000000000000000000000000000000AD
:10035000000000000000000000000000000000009D
:10036000000000000000000000000000000000008D
:10037000000000000000000000000000000000007D
:100380000000000000000000000000103C7E477BE1
:100390007B79717C7C7C7D7F7C3C1C1C0000000098
:1003A000000000000000000000000000000000004D
:1003B000000000000000000000000000000000003D
:1003C000000000000000000000000000000000002D
:1003D000000000000000000000000000000000001D
:1003E000000000000000000000000000000000000D
:1003F00000000000000000000000000000000000FD
:1004000000000000000000000000000000000000EC
:1004100000000000000000000000000000000000DC
:1004200000000000000000000000000000000000CC
:1004300000000000000000000000000000000000BC
:1004400000000000000000000000000000000000AC
:1004500000000000000000008000400000000000DC
:10046000000000000000000000000000000000008C
:10047000000000000000000000000000000000007C
:10048000000000000000000000000000000000006C
:10049000000000000000000000000000000000005C
:1004A000000000000000000000000000000000004C
:1004B000000000000000000000000000000000003C
:1004C000000000000000000000000000000000002C
:1004D000000000000000000000000000000000001C
:1004E000000000000000000000000000000000000C
:1004F00000000000000000000000000000000000FC
:1005000000000000000000000000000000000000EB
:1005100004060C0C0C1C3CFCFCF8F0F0F0F06060E5
:1005200010000000000800000000000000000000B3
:1005300000000000000000000000000000000000BB
:1005400000000000000000000000000000000000AB
:10055000000000000000000000000000000000009B
:10056000000000000000000000000000000000008B
:10057000000000000000000000000000000000007B
:1005800000000000000000000000000040607078E3
:100590007C7CFEFEFEFFFFFFFFFFFFC38303000026
:1005A0000300000000000000F080000000000000D8
:1005B000000000000000000000000000000000003B
:1005C000000000000000000000000000000000002B
:1005D000000000000000000000000000000000001B
:1005E000000000000000000000000000000000000B
:1005F00000000000000000000000000000000000FB
:1006000000000000000000000000000000008080EA
:10061000F0F8F8FCFCFFFFFF3F1F1F1F1F1E3C40B0
:10062000808080808080002001090C0C0400000084
:1006300000000000000000000000000000000000BA
:1006400000000000000000000000000000000000AA
:10065000000000000000000000000000000000009A
:10066000000000000000000000000000000000008A
:10067000000000000000000000000000000000007A
:100680000000000000000000000000000000030364
:100690000101E17131232101F0E0E0E0F0E0E0F060
:1006A000FFF0F0F8F830000000000000000000004B
:1006B000000000000000000000000000000000003A
:1006C000000000000000000000000000000000002A
:1006D000000000000000000000000000000000001A
:1006E000000000000000000000000000000000000A
:1006F00000000000000000000000000000000000FA
:1007000000000000000000000000000000F0F0F811
:10071000F80001000000787E7F3F0F073131797FBC
:10072000F2F1B1A191C0C080000000000000000003
:1007300000000000000000000000000000000000B9
:1007400000000000000000000000000000000000A9
:100750000000000000000000000000000000000099
:100760000000000000000000000000000000000089
:100770000000000000000000000000000000000079
:10078000000000000000000000000000001F637374
:10079000737B7A7C7C7C7C70706060600000000001
:1007A0000000000003030303070706020000000027
:1007B0000000000000000000000000000000000039
:1007C0000000000000000000000000000000000029
:1007D0000000000000000000000000000000000019
:1007E0000000000000000000000000000000000009
:1007F00000000000000000000000000000000000F9
:1008000000000000000000000000000000000000E8
:1008100000000000000000000000000000000000D8
:1008200000000000000000000000000000000000C8
:1008300000000000000000000000000000000000B8
:1008400000000000000000000000000000000000A8
:1008500000000000000000000000000080004000D8
:100860000000000000000000000000000000000088
:100870000000000000000000000000000000000078
:100880000000000000000000000000000000000068
:100890000000000000000000000000000000000058
:1008A0000000000000000000000000000000000048
:1008B0000000000000000000000000000000000038
:1008C0000000000000000000000000000000000028
:1008D0000000000000000000000000000000000018
:1008E0000000000000000000000000000000000008
:1008F00000000000000000000000000000000000F8
:1009000000000000000000000000000000000000E7
:100910000000000000060C0C0C1C3CFCFCF8F0F085
:10092000F0E060601000000000080000000000001F
:1009300000000000000000000000000000000000B7
:1009400000000000000000000000000000000000A7
:100950000000000000000000000000000000000097
:100960000000000000000000000000000000000087
:100970000000000000000000000000000000000077
:100980000000000000000000000000000000000067
:10099000406070787C7CFEFEFEFFFFFFFFFFFFC320
:1009A000010300000300000000000000F0800000D0
:1009B0000000000000000000000000000000000037
:1009C0000000000000000000000000000000000027
:1009D0000000000000000000000000000000000017
:1009E0000000000000000000000000000000000007
:1009F00000000000000000000000000000000000F7
:100A000000000000000000000000000000000000E6
:100A100000008080F0F8F8FCFCFFFFFFFFFFFFFF05
:100A2000FFFEF840000080808080002001090C0C4F
:100A300004000000000000000000000000000000B2
:100A400000000000000000000000000000000000A6
:100A50000000000000000000000000000000000096
:100A60000000000000000000000000000000000086
:100A70000000000000000000000000000000000076
:100A80000000000000000000000000000000000066
:100A900020D0E949183C3C3C3C3C3FFFFFFDFEF8C0
:100AA000F7E0C080004040000000000000000000AF
:100AB0000000000000000000000000000000000036
:100AC0000000000000000000000000000000000026
:100AD0000000000000000000000000000000000016
:100AE0000000000000000000000000000000000006
:100AF00000000000000000000000000000000000F6
:100B000000000000000000000000000000000000E5
:100B1000386341460604050C040406020301010182
:100B200001010100F8F8F8FCF2FCF8F00000E0E048
:100B3000E0E0E06020000000000000000000000095
:100B400000000000000000000000000000000000A5
:100B50000000000000000000000000000000000095
:100B60000000000000000000000000000000000085
:100B70000000000000000000000000000000000075
:100B80000000000000000000000000000000FEFE69
:100B9000FCFC7818080003000000000000000000C2
:100BA000000000000001030303030303020203002B
:100BB0000000000000000000000000000000000035
:100BC0000000000000000000000000000000000025
:100BD0000000000000000000000000000000000015
:100BE0000000000000000000000000000000000005
:100BF00000000000000000000000000000000000F5
:100C000000000000000000000000000000000000E4
:100C100000000000000000000000000000000000D4
:100C200000000000000000000000000000000000C4
:100C300000000000000000000000000000000000B4
:100C400000000000000000000000000000000000A4
:100C50000000000000000000000000000000000094
:100C600080004000000000000000000000000000C4
:100C70000000000000000000000000000000000074
:100C80000000000000000000000000000000000064
:100C90000000000000000000000000000000000054
:100CA0000000000000000000000000000000000044
:100CB0000000000000000000000000000000000034
:100CC0000000000000000000000000000000000024
:100CD0000000000000000000000000000000000014
:100CE0000000000000000000000000000000000004
:100CF00000000000000000000000000000000000F4
:100D000000000000000000000000000000000000E3
:100D1000000000000000000000060C0C0C1C3CFC55
:100D2000FCF8F0F0F0E06060100000000008000047
:100D300000000000000000000000000000000000B3
:100D400000000000000000000000000000000000A3
:100D50000000000000000000000000000000000093
:100D60000000000000000000000000000000000083
:100D70000000000000000000000000000000000073
:100D80000000000000000000000000000000000063
:100D900000000000406070787C7CFEFEFEFFFFFFDC
:100DA000FFFFFFC3830300000300000000000000FA
:100DB000F0800000000000000000000000000000C3
:100DC0000000000000000000000000000000000023
:100DD0000000000000000000000000000000000013
:100DE0000000000000000000000000000000000003
:100DF00000000000000000000000000000000000F3
:100E000000000000000000000000000000000000E2
:100E10000000000000008080F0F8F8FCFCFFFFFFFD
:100E2000FFFFFFFFFFFEFCC08080808080800020ED
:100E300021090C0C0400000000000000000000006C
:100E400000000000000000000000000000000000A2
:100E50000000000000000000000000000000000092
:100E60000000000000000000000000000000000082
:100E70000000000000000000000000000000000072
:100E80000000000000000000000000000000000062
:100E9000002010686CCEDFFF7F7F7F7F3F3F3FFFEA
:100EA0007FE1DEA6AF6FEB777470303038F0E06032
:100EB000200000000000E0E0E0F0F07838000000E2
:100EC0000000000000000000000000000000000022
:100ED0000000000000000000000000000000000012
:100EE0000000000000000000000000000000000002
:100EF00000000000000000000000000000000000F2
:100F000000000000000000000000000000000000E1
:100F10000030787CFEFFC1C0C0C644040404000257
:100F20000301010101010100000000000103033F72
:100F30003CFEFFF8F8FC7F3F0707030000000000BD
:100F400000000000000000000000000000000000A1
:100F50000000000000000000000000000000000091
:100F60000000000000000000000000000000000081
:100F70000000000000000000000000000000000071
:100F80000000000000000000000000000000007EE3
:100F90003E1C1C0C080905030000000000000000B6
:100FA0000000000000000000000000000000000041
:100FB0000000000000000000000000000000000031
:100FC0000000000000000000000000000000000021
:100FD0000000000000000000000000000000000011
:100FE0000000000000000000000000000000000001
:100FF00000000000000000000000000000000000F1
:1010000000000000000000000000000000000000E0
:1010100000000000000000000000000000000000D0
:1010200000000000000000000000000000000000C0
:1010300000000000000000000000000000000000B0
:1010400000000000000000000000000000000000A0
:101050000000000000000000000000000000000090
:1010600000000000800040000000000000000000C0
:101070000000000000000000000000000000000070
:101080000000000000000000000000000000000060
:101090000000000000000000000000000000000050
:1010A0000000000000000000000000000000000040
:1010B0000000000000000000000000000000000030
:1010C0000000000000000000000000000000000020
:1010D0000000000000000000000000000000000010
:1010E0000000000000000000000000000000000000
:1010F00000000000000000000000000000000000F0
:1011000000000000000000000000000000000000DF
:1011100000000000000000000000000000060C0CB1
:101120000C1C3CFCFCF8F0F0F0E0606010000000EB
:1011300000080000000000000000000000000000A7
:10114000000000000000000000000000000000009F
:10115000000000000000000000000000000000008F
:10116000000000000000000000000000000000007F
:10117000000000000000000000000000000000006F
:10118000000000000000000000000000000000005F
:101190000000000000000000406070787CFCFEFE53
:1011A000FEFFFFFFFFFFFFC301030000030000007D
:1011B00000000000F08000000000000000000000BF
:1011C000000000000000000000000000000000001F
:1011D000000000000000000000000000000000000F
:1011E00000000000000000000000000000000000FF
:1011F00000000000000000000000000000000000EF
:1012000000000000000000000000000000000000DE
:10121000000000000000000000000000C0E0F8FC3A
:10122000FCFFFFFFFFFFFFFFFFFEF8C08080808014
:101230008080002001090C0C040000000000000068
:10124000000000000000000000000000000000009E
:10125000000000000000000000000000000000008E
:10126000000000000000000000000000000000007E
:10127000000000000000000000000000000000006E
:10128000000000000000000000000000000000005E
:101290000000000000F03CFEFFEF070F4FEFCD7F96
:1012A0007F7F3F1F1F1F3F3FF9F7363711010000B7
:1012B0000040200000000000000080C0E0000000AE
:1012C000000000000000000000000000000000001E
:1012D000000000000000000000000000000000000E
:1012E00000000000000000000000000000000000FE
:1012F00000000000000000000000000000000000EE
:1013000000000000000000000000000000000000DD
:101310000000000000FFF8E1E3E3430300000101E7
:101320000101010101010101010101030306065C44
:10133000C0408080F0E0E0E2E7CF3F07010000001E
:10134000000000000000000000000000000000009D
:10135000000000000000000000000000000000008D
:10136000000000000000000000000000000000007D
:10137000000000000000000000000000000000006D
:10138000000000000000000000000000000000005D
:10139000000000000003070301000000000000003F
:1013A000000000000000000000000000000000003D
:1013B0000006070F0F0F07030100000000000000E8
:1013C000000000000000000000000000000000001D
:1013D000000000000000000000000000000000000D
:1013E00000000000000000000000000000000000FD
:1013F00000000000000000000000000000000000ED
:1014000000000000000000000000000000000000DC
:1014100000000000000000000000000000000000CC
:1014200000000000000000000000000000000000BC
:1014300000000000000000000000000000000000AC
:10144000000000000000000000000000000000009C
:10145000000000000000000000000000000000008C
:1014600000000000000000008000400000000000BC
:10147000000000000000000000000000000000006C
:10148000000000000000000000000000000000005C
:10149000000000000000000000000000000000004C
:1014A000000000000000000000000000000000003C
:1014B000000000000000000000000000000000002C
:1014C000000000000000000000000000000000001C
:1014D000000000000000000000000000000000000C
:1014E00000000000000000000000000000000000FC
:1014F00000000000000000000000000000000000EC
:1015000000000000000000000000000000000000DB
:1015100000000000000000000000000000000000CB
:1015200000060C0C0C1C3CFCFCF8F0F0F0E06060D9
:101530001000000000080000000000000000000093
:10154000000000000000000000000000000000009B
:10155000000000000000000000000000000000008B
:10156000000000000000000000000000000000007B
:10157000000000000000000000000000000000006B
:10158000000000000000000000000000000000005B
:1015900000000000000000000000000040607078C3
:1015A0007C7CFEFEFEFFFFFFFFFFFFC38303000006
:1015B0000300000000000000F080000000000000B8
:1015C000000000000000000000000000000000001B
:1015D000000000000000000000000000000000000B
:1015E00000000000000000000000000000000000FB
:1015F00000000000000000000000000000000000EB
:1016000000000000000000000000000000000000DA
:1016100000000000000000000000000000008080CA
:10162000F0F8F8FCFCFFFFFFFFFFFFFFFFFEFCC030
:10163000808080808080002001090C0C0400000064
:10164000000000000000000000000000000000009A
:10165000000000000000000000000000000000008A
:10166000000000000000000000000000000000007A
:10167000000000000000000000000000000000006A
:10168000000000000000000000000000000000005A
:1016900000000000000000000000000000E4FDFE6B
:1016A000BF1F0D0F030F6FFFFFE7DBA7D9D91A1379
:1016B0000103000000000000000000000000000026
:1016C000000000000000000000000000000000001A
:1016D000000000000000000000000000000000000A
:1016E00000000000000000000000000000000000FA
:1016F00000000000000000000000000000000000EA
:1017000000000000000000000000000000000000D9
:1017100000000000000000000000000000010703BE
:101720003F4FCEC4C4C2E2E1010101010101020642
:10173000023820C004020000000000000000C0C009
:10174000C0C0E060000000000000000000000000D9
:101750000000000000000000000000000000000089
:101760000000000000000000000000000000000079
:101770000000000000000000000000000000000069
:101780000000000000000000000000000000000059
:101790000000000000000000000000000000000049
:1017A0000000000303070F0F00000000000000000E
:1017B000000000037EFAFC7E7F7F1F1E0D090F07CD
:1017C0000301000000000000000000000000000015
:1017D0000000000000000000000000000000000009
:1017E00000000000000000000000000000000000F9
:1017F00000000000000000000000000000000000E9
:1018000000000000000000000000000000000000D8
:1018100000000000000000000000000000000000C8
:1018200000000000000000000000000000000000B8
:1018300000000000000000000000000000000000A8
:101840000000000000000000000000000000000098
:101850000000000000000000000000000000000088
:1018600000000000000000000000000080004000B8
:101870000000000000000000000000000000000068
:101880000000000000000000000000000000000058
:101890000000000000000000000000000000000048
:1018A0000000000000000000000000000000000038
:1018B0000000000000000000000000000000000028
:1018C0000000000000000000000000000000000018
:1018D0000000000000000000000000000000000008
:1018E00000000000000000000000000000000000F8
:1018F00000000000000000000000000000000000E8
:1019000000000000000000000000000000000000D7
:1019100000000000000000000000000000000000C7
:1019200000000000040E0E0E1E3E3FFDFCF8F8F80D
:101930007D1C0C0802000000101010300000000098
:101940000000000000000000000000000000000097
:101950000000000000000000000000000000000087
:101960000000000000000000000000000000000077
:101970000000000000000000000000000000000067
:101980000000000000000000000000000000000057
:101990000000000000000000000000000000000047
:1019A000406070787C7C7EFEFEFEFFFFFFFFFFF252
:1019B0008000000000000000000000F0E040840013
:1019C0000000000000000000000000000000000017
:1019D0000000000000000000000000000000000007
:1019E00000000000000000000000000000000000F7
:1019F00000000000000000000000000000000000E7
:101A000000000000000000000000000000000000D6
:101A100000000000000000000000000000000000C6
:101A2000000080C0F0F8F8FCFCFCFFFFFFFFFFFFA8
:101A3000FFFFFBC5808080808080002101080F0CA3
:101A40000000000000000000000000000000000096
:101A50000000000000000000000000000000000086
:101A60000000000000000000000000000000000076
:101A70000000000000000000000000000000000066
:101A80000000000000000000000000000000000056
:101A90000000000000000000000000000000000046
:101AA000000001000000C0F8F83E3F1F0F070BB711
:101AB000F95F9E0301030000000000000000000029
:101AC0000000000000000000000000000000000016
:101AD0000000000000000000000000000000000006
:101AE00000000000000000000000000000000000F6
:101AF00000000000000000000000000000000000E6
:101B000000000000000000000000000000000000D5
:101B100000000000000000000000000000000000C5
:101B200000C0F0E0E0C2C38383C4C040C0C0C06056
:101B30003F01010000000000000000000000000064
:101B40000000000000000000000000000000000095
:101B50000000000000000000000000000000000085
:101B60000000000000000000000000000000000075
:101B70000000000000000000000000000000000065
:101B80000000000000000000000000000000000055
:101B90000000000000000000000000000000000045
:101BA0000003070707070F0F0F01101C7C7CFFFACB
:101BB000FAF8F8FCFCF080007C7C7C3C1C1C0C00DF
:101BC0000000000000000000000000000000000015
:101BD0000000000000000000000000000000000005
:101BE00000000000000000000000000000000000F5
:101BF00000000000000000000000000000000000E5
:101C000000000000000000000000000000000000D4
:101C100000000000000000000000000000000000C4
:101C200000000000000000000000000000000000B4
:101C300000000000000000000000000000000000A4
:101C40000000000000000000000000000000000094
:101C50000000000000000000000000000000000084
:101C60000000000000000000000000000000000074
:101C700080004000000000000000000000000000A4
:101C80000000000000000000000000000000000054
:101C90000000000000000000000000000000000044
:101CA0000000000000000000000000000000000034
:101CB0000000000000000000000000000000000024
:101CC0000000000000000000000000000000000014
:101CD0000000000000000000000000000000000004
:101CE00000000000000000000000000000000000F4
:101CF00000000000000000000000000000000000E4
:101D000000000000000000000000000000000000D3
:101D100000000000000000000000000000000000C3
:101D2000000000000000000000000E0E0E1E3EFF2E
:101D3000FFFFFFFD850E3222020000001010206020
:101D4000F0F80000000000000000000000000000AB
:101D50000000000000000000000000000000000083
:101D60000000000000000000000000000000000073
:101D70000000000000000000000000000000000063
:101D80000000000000000000000000000000000053
:101D90000000000000000000000000000000000043
:101DA0000000000000406070787C7CFEFEFEFFFFBB
:101DB000FFFFFFE0808080000000000000F0E0C036
:101DC0000083F4000000000000000000000000009C
:101DD0000000000000000000000000000000000003
:101DE00000000000000000000000000000000000F3
:101DF00000000000000000000000000000000000E3
:101E000000000000000000000000000000000000D2
:101E100000000000000000000000000000000000C2
:101E200000000000000080C0F0F8F8FCFCFCFFFFA0
:101E3000FFFFFFFFFFE7C1818180808080E1E168D3
:101E4000080F080000000000000000000000000073
:101E50000000000000000000000000000000000082
:101E60000000000000000000000000000000000072
:101E70000000000000000000000000000000000062
:101E80000000000000000000000000000000000052
:101E90000000000000000000000000000000000042
:101EA00000000000000081000808481A1A3E3EFEAB
:101EB000DC9E0701010113171F1703010300000037
:101EC0000000000000000000000000000000000012
:101ED0000000000000000000000000000000000002
:101EE00000000000000000000000000000000000F2
:101EF00000000000000000000000000000000000E2
:101F000000000000000000000000000000000000D1
:101F100000000000000000000000000000000000C1
:101F20000000000000000080C0E0E0E0F0E0E4DF3E
:101F30009F5F1F3F3E3E2343707870E0E0E0C0C0EB
:101F40008000000000000000000000000000000011
:101F50000000000000000000000000000000000081
:101F60000000000000000000000000000000000071
:101F70000000000000000000000000000000000061
:101F80000000000000000000000000000000000051
:101F90000000000000000000000000000000000041
:101FA000000000000000000000071F7F7F7F7F7F90
:101FB0007D6040786060606000000000000000000C
:101FC0000000000000000000000000000000000011
:101FD0000000000000000000000000000000000001
:101FE00000000000000000000000000000000000F1
:101FF00000000000000000000000000000000000E1
:1020000000000000000000000000000000000000D0
:1020100000000000000000000000000000000000C0
:1020200000000000000000000000000000000000B0
:1020300000000000000000000000000000000000A0
:102040000000000000000000000000000000000090
:102050000000000000000000000000000000000080
:102060000000000000000000000000000000000070
:1020700000000000800040000000000000000000A0
:102080000000000000000000000000000000000050
:102090000000000000000000000000000000000040
:1020A0000000000000000000000000000000000030
:1020B0000000000000000000000000000000000020
:1020C0000000000000000000000000000000000010
:1020D0000000000000000000000000000000000000
:1020E00000000000000000000000000000000000F0
:1020F00000000000000000000000000000000000E0
:1021000000000000000000000000000000000000CF
:1021100000000000000000000000000000000000BF
:1021200000000000000000000000000000000E0E93
:102130000E1E3EFFFFFFFFFD850E3222020008004B
:1021400010102060F0F80000000000000000000007
:10215000000000000000000000000000000000007F
:10216000000000000000000000000000000000006F
:10217000000000000000000000000000000000005F
:10218000000000000000000000000000000000004F
:10219000000000000000000000000000000000003F
:1021A000000000000000000000406070787C7CFEB1
:1021B000FEFEFFFFFFFFFFF2C08080000000000076
:1021C00000F0E0C08083F400000000000000000088
:1021D00000000000000000000000000000000000FF
:1021E00000000000000000000000000000000000EF
:1021F00000000000000000000000000000000000DF
:1022000000000000000000000000000000000000CE
:1022100000000000000000000000000000000000BE
:102220000000000000000000000080C0F0F8F83C52
:10223000DCBCBFBF3F7FFFFFFFE7C18181808080A3
:1022400080E1E168080F08000000000000000000C5
:10225000000000000000000000000000000000007E
:10226000000000000000000000000000000000006E
:10227000000000000000000000000000000000005E
:10228000000000000000000000000000000000004E
:10229000000000000000000000000000000000003E
:1022A0000000000000000000000001008000C8F1F4
:1022B000F0F87C3FFFE0FFC721218101271F07279E
:1022C0002E211C00000000000000000000000000A3
:1022D00000000000000000000000000000000000FE
:1022E00000000000000000000000000000000000EE
:1022F00000000000000000000000000000000000DE
:1023000000000000000000000000000000000000CD
:1023100000000000000000000000000000000000BD
:1023200000000000000000000000037E7FFFFFFFB0
:10233000FFFF7E04030101010101C0E2C2C0C0E051
:10234000E0000000E0E0E0E0E0E0C040000000006D
:10235000000000000000000000000000000000007D
:10236000000000000000000000000000000000006D
:10237000000000000000000000000000000000005D
:10238000000000000000000000000000000000004D
:10239000000000000000000000000000000000003D
:1023A00000000000000000000000000000077F7F28
:1023B0007D7D7C0000000000000003070707070781
:1023C00007040404030303030100000000000000ED
:1023D00000000000000000000000000000000000FD
:1023E00000000000000000000000000000000000ED
:1023F00000000000000000000000000000000000DD
:1024000000000000000000000000000000000000CC
:1024100000000000000000000000000000000000BC
:1024200000000000000000000000000000000000AC
:10243000000000000000000000000000000000009C
:10244000000000000000000000000000000000008C
:10245000000000000000000000000000000000007C
:10246000000000000000000000000000000000006C
:10247000000000000000000080004000000000009C
:10248000000000000000000000000000000000004C
:10249000000000000000000000000000000000003C
:1024A000000000000000000000000000000000002C
:1024B000000000000000000000000000000000001C
:1024C000000000000000000000000000000000000C
:1024D00000000000000000000000000000000000FC
:1024E00000000000000000000000000000000000EC
:1024F00000000000000000000000000000000000DC
:1025000000000000000000000000000000000000CB
:1025100000000000000000000000000000000000BB
:1025200000000000000000000000000000000000AB
:1025300000000E0E0E1E3EFFFFFFFFFD850E322235
:102540000200000010102060F0F800000000000001
:10255000000000000000000000000000000000007B
:10256000000000000000000000000000000000006B
:10257000000000000000000000000000000000005B
:10258000000000000000000000000000000000004B
:10259000000000000000000000000000000000003B
:1025A000000000000000000000000000004060701B
:1025B000787C7CFEFEFEFFFFFFFFFFE08080800056
:1025C0000000000000F0E0C00083F4000000000004
:1025D00000000000000000000000000000000000FB
:1025E00000000000000000000000000000000000EB
:1025F00000000000000000000000000000000000DB
:1026000000000000000000000000000000000000CA
:1026100000000000000000000000000000000000BA
:10262000000000000000000000000000000080C06A
:10263000F078383C3C3C3F3F3F7FFFFFFFE7C181E4
:102640008180808080E1E1E8F87FF80800000000E8
:10265000000000000000000000000000000000007A
:10266000000000000000000000000000000000006A
:10267000000000000000000000000000000000005A
:10268000000000000000000000000000000000004A
:10269000000000000000000000000000000000003A
:1026A000000000000000000100200000000800827F
:1026B000828081F1F1F97F3F7F60FFC7E1E1818195
:1026C000E700040C0C03060607060000000000806B
:1026D000E0E06000000000000000000000000000DA
:1026E00000000000000000000000000000000000EA
:1026F00000000000000000000000000000000000DA
:1027000000000000000000000000000000000000C9
:1027100000000000000000000000000000000000B9
:10272000000000000000000000000000C0F8FFFFF3
:10273000FFFFFF7F7E1E0808060001010101010165
:10274000010303020E8C80E0F0F8F0F0E3C3270FE2
:102750000300000000000000000000000000000076
:102760000000000000000000000000000000000069
:102770000000000000000000000000000000000059
:102780000000000000000000000000000000000049
:102790000000000000000000000000000000000039
:1027A000000000000000000000007C7C7F7F1F0D07
:1027B000060303000000000000000000000000000D
:1027C00000000000000303070F0F070301000000D3
:1027D00000000000000000000000000000000000F9
:1027E00000000000000000000000000000000000E9
:1027F00000000000000000000000000000000000D9
:1028000000000000000000000000000000000000C8
:1028100000000000000000000000000000000000B8
:1028200000000000000000000000000000000000A8
:102830000000000000000000000000000000000098
:102840000000000000000000000000000000000088
:102850000000000000000000000000000000000078
:102860000000000000000000000000000000000068
:102870000000000000000000000000008000400098
:102880000000000000000000000000000000000048
:102890000000000000000000000000000000000038
:1028A0000000000000000000000000000000000028
:1028B0000000000000000000000000000000000018
:1028C0000000000000000000000000000000000008
:1028D00000000000000000000000000000000000F8
:1028E00000000000000000000000000000000000E8
:1028F00000000000000000000000000000000000D8
:1029000000000000000000000000000000000000C7
:1029100000000000000000000000000000000000B7
:1029200000000000000000000000000000000000A7
:102930000000000000000E0E0E1E3EFFFFFFFFFD18
:10294000850E32220200000010102060F0F8000016
:102950000000000000000000000000000000000077
:102960000000000000000000000000000000000067
:102970000000000000000000000000000000000057
:102980000000000000000000000000000000000047
:102990000000000000000000000000000000000037
:1029A0000000000000000000000000000000000027
:1029B00000406070787C7CFEFEFEFFFFFFFFFFE0C2
:1029C000808080000000000000F0E0C00083F40080
:1029D00000000000000000000000000000000000F7
:1029E00000000000000000000000000000000000E7
:1029F00000000000000000000000000000000000D7
:102A000000000000000000000000000000000000C6
:102A100000000000000000000000000000000000B6
:102A200000000000000000000000000000000000A6
:102A3000000080C0F0F8F8FCFC7C3F3F3F7FFFFFC8
:102A4000FFE7C1818180808080E1E168080F080094
:102A50000000000000000000000000000000000076
:102A60000000000000000000000000000000000066
:102A70000000000000000000000000000000000056
:102A80000000000000000000000000000000000046
:102A90000000000000000000000000000000000036
:102AA000000000000000000000000000000008001E
:102AB000000000200000407A7A7EFFFFFFC7A3815C
:102AC00041C1C3E301E10101C100000000000000B9
:102AD00000808000000000000000000000000000F6
:102AE00000000000000000000000000000000000E6
:102AF00000000000000000000000000000000000D6
:102B000000000000000000000000000000000000C5
:102B100000000000000000000000000000000000B5
:102B2000000000000000000000000080E0E8CE9EF1
:102B30009FFF78200000020202000103020202024D
:102B40000201050003C0C2F0F1800000B8F8FE7E6B
:102B50003F3F0F00000000000000000000000000E8
:102B60000000000000000000000000000000000065
:102B70000000000000000000000000000000000055
:102B80000000000000000000000000000000000045
:102B90000000000000000000000000000000000035
:102BA00000000000000000000000001F1F0F0703CE
:102BB0000100000000000000000000000000000014
:102BC000000000000F1F1F1F1F0F0F07030300004F
:102BD00000000000000000000000000000000000F5
:102BE00000000000000000000000000000000000E5
:102BF00000000000000000000000000000000000D5
:102C000000000000000000000000000000000000C4
:102C100000000000000000000000000000000000B4
:102C200000000000000000000000000000000000A4
:102C30000000000000000000000000000000000094
:102C40000000000000000000000000000000000084
:102C50000000000000000000000000000000000074
:102C60000000000000000000000000000000000064
:102C70000000000000000000000000000000000054
:102C80008000400000000000000000000000000084
:102C90000000000000000000000000000000000034
:102CA0000000000000000000000000000000000024
:102CB0000000000000000000000000000000000014
:102CC0000000000000000000000000000000000004
:102CD00000000000000000000000000000000000F4
:102CE00000000000000000000000000000000000E4
:102CF00000000000000000000000000000000000D4
:102D000000000000000000000000000000000000C3
:102D100000000000000000000000000000000000B3
:102D200000000000000000000000000000000000A3
:102D3000000000000000000000000E0E0E1E3EFF0E
:102D4000FFFFFFFD850E32220200080010102060F8
:102D5000F0F800000000000000000000000000008B
:102D60000000000000000000000000000000000063
:102D70000000000000000000000000000000000053
:102D80000000000000000000000000000000000043
:102D90000000000000000000000000000000000033
:102DA0000000000000000000000000000000000023
:102DB0000000000000406070787C7CFEFEFEFFFF9B
:102DC000FFFFFFF0808080000000000000F0E0C006
:102DD0008083F400000000000000000000000000FC
:102DE00000000000000000000000000000000000E3
:102DF00000000000000000000000000000000000D3
:102E000000000000000000000000000000000000C2
:102E100000000000000000000000000000000000B2
:102E200000000000000000000000000000000000A2
:102E300000000000000080C0F0F8F8FCFCFCFFFF80
:102E4000FFFFFFFFFFE7C1818180808080E1E168B3
:102E5000080F080000000000000000000000000053
:102E60000000000000000000000000000000000062
:102E70000000000000000000000000000000000052
:102E80000000000000000000000000000000000042
:102E90000000000000000000000000000000000032
:102EA0000000000000000000000000000000000022
:102EB000000000000000C00000000000C0C0FFFFD4
:102EC000FDC6A381C1C1C3E301C10101C10000006E
:102ED00000000000000000000000000000000000F2
:102EE00000000000000000000000000000000000E2
:102EF00000000000000000000000000000000000D2
:102F000000000000000000000000000000000000C1
:102F100000000000000000000000000000000000B1
:102F2000000000000000000000000000000000E0C1
:102F3000FCFEFE7870632F3F1E00203E3E3F3F0F99
:102F40000707F13101810302070482C0E1E0F0F0DC
:102F5000F0F0000000000000000000000000000091
:102F60000000000000000000000000000000000061
:102F70000000000000000000000000000000000051
:102F80000000000000000000000000000000000041
:102F90000000000000000000000000000000000031
:102FA0000000000000000000000000000000000021
:102FB0000000000000000000000000000000000011
:102FC00000007B7E7F7F67717C7F1F1F1F0F0703C1
:102FD00001000000000000000000000000000000F0
:102FE00000000000000000000000000000000000E1
:102FF00000000000000000000000000000000000D1
:1030000000000000000000000000000000000000C0
:1030100000000000000000000000000000000000B0
:1030200000000000000000000000000000000000A0
:103030000000000000000000000000000000000090
:103040000000000000000000000000000000000080
:103050000000000000000000000000000000000070
:103060000000000000000000000000000000000060
:103070000000000000000000000000000000000050
:103080000000000005072060000000000000005F55
:1030900000000007000700147F147F14242A7F2AF1
:1030A00012231308646236495522500005030000BC
:1030B000001C2241000041221C00082A1C2A08088A
:1030C000083E0808005030000008080808080030D2
:1030D00030000020100804023E5149453E00427F66
:1030E000400042615149462141454B311814127F3D
:1030F0001027454545393C4A4949300171090503C6
:103100003649494936064949291E0036360000002D
:1031100056360000000814224114141414144122DD
:103120001408000201510906324979413E7E11110D
:10313000117E7F494949363E414141227F4141222A
:103140001C7F494949417F090901013E41415132F2
:103150007F0808087F00417F41002040413F017FF8
:10316000081422417F404040407F0204027F7F04D8
:1031700008107F3E4141413E7F090909063E415109
:10318000215E7F09192946464949493101017F01DC
:10319000013F4040403F1F2040201F7F2018207FDC
:1031A0006314081463030478040361514945430020
:1031B000007F4141020408102041417F00000402C9
:1031C00001020440404040400001020400205454E9
:1031D00054787F4844443838444444203844444870
:1031E0007F3854545418087E090102081454543C82
:1031F0007F0804047800447D40002040443D0000E6
:103200007F10284400417F40007C041804787C082B
:1032100004047838444444387C1414140808141402
:10322000187C7C080404084854545420043F44404B
:10323000203C4040207C1C2040201C3C4030403C36
:1032400044281028440C5050503C4464544C4400D2
:103250000836410000007F000000413608000201EE
:103260000204027F4141417F000103070F1F3F7F9E
:10327000FF0001002D4E414E00494E460000010066
:10328000800272320000F894EE27ECBBF1E0FBBF45
:10329000EBBFE5BF8DE0A2E0BB27ED938A95E9F790
:1032A00080E098E0A0E6ED930197E9F7EEE7F2E31E
:1032B00085919591009761F0A591B5910590159034
:1032C000BF01F00105900D920197E1F7FB01F0CFEE
:1032D000EFE5EDBFE8E0EEBFC0E6D2E00C94701978
:1032E0002697EFEFEABBE0E0EBBBEFE3E7BBE0E004
:1032F000E8BBE4E8F0E3E883F983E0E0EA83EB830A
:10330000EC83ED83DE01BED00E94EE1DE4E5F0E02B
:103310000E94F21DE8E5F4E00E94F21DECE5F8E001
:103320000E94F21DE0E6FCE00E94F21DE4E6F0E1FE
:103330000E94F21DE8E6F4E10E94F21DECE6F8E1DD
:103340000E94F21DE0E7FCE10E94F21DE4E7F0E2DA
:103350000E94F21DE8E7F4E20E94F21DECE7F8E2B9
:103360000E94F21DE0E8FCE2FA93EA93A0E00E94DA
:10337000331DA1E0B0E00E94631EC6CFFFCF000066
:10338000C09A00000895C098C498C59808951A93EB
:10339000F6DF19B3C098E12F19910895AA931A93F3
:1033A000E0E0EABBC19AC298E981EF5F1E2F10FFEF
:1033B00002C0C49A01C0C49811FF02C0C59A01C0DE
:1033C000C598E5DFE078E9F718810C94861DAA938B
:1033D000A981E4DF0E94FC1D0C94861DE0917E0211
:1033E000EA93E0917D02EF73E064AE2FF0DFE091AD
:1033F0007E02EA93E0917F02E86BAE2FE8DF08954A
:10340000AA93E981E0937D02E295EF70E695E69557
:10341000E0937E02E881E0937F02E0DF0C94861D5A
:10342000A0917D02AF5FA0937D02A03818F0E0E08C
:10343000E0937D02E0917D02EF7331F4E0917D0233
:10344000EA93A0917F02DCDF0895AA93A0917E0207
:10345000A5DFC29A0E94FC1D21960895A0917E02CC
:103460009DDFE0E0EABBC19AC29A91DF0895AA937A
:10347000E981EA93E9810E94051EF0DFAFDFEEDF0C
:103480000C94861DBA93AA931A93B89AB99ABA9AC9
:10349000BB9AC39ABC9ABD9A76DFC398A4E6B0E003
:1034A0000E94631EC39A10E0123040F41A93AFE3F7
:1034B0008EDF1A931395A0EC8ADFF6CFE1E0E0935C
:1034C0006002E0E0E0936102E981FA813097A9F0BF
:1034D000A981BA810E94A51EE0936402F09365025F
:1034E00012960E94A51EE0937902F0937A02A981B8
:1034F000BA8114960E94A51E0AC0E0E0F0E0E093B5
:103500006402F0936502E0937902F0937A02E0930B
:103510007B02F0937C02E1E0E0936602E0936702B5
:10352000E0936802EFEFE0936902E1E0E09370025C
:10353000E1E7F2E0FA93EA93EFEFEA93A8E0B0E074
:103540000E946D1D04D0E1E018810C94CD1D0E94F5
:10355000CC1E00E030E0E0916102E03009F00FEFB6
:10356000383078F4E0E0EA93A32F3F5F49DF10E0C2
:10357000A12F1F5FA03820F4A02F0E940B1EF8CFB0
:10358000EFCFE0E0EA93A0E03BDFE0E0EA93A0E0E9
:1035900098D20E94D31E0C94EC1DAA931A93ED812D
:1035A000EA93AD8164DF1E2F19DFE981E73011F066
:1035B000E83039F4EB81EA93AA810E94881DEB83FD
:1035C00008C0E33021F4EB81E095EB8302C0E030EA
:1035D00021F4EA81E0951E2302C0E23029F4EA8159
:1035E000AB81EA231E2B0EC0E13029F4EA81AB81C6
:1035F000EA231E2707C0E43029F4EA81E095AB8175
:10360000EA2B1E23A12F0E940B1E188126960895D7
:10361000AA9323970E94CA1EA889A03848F4AF85B0
:10362000A03430F4AE85A03019F0AD85A03009F497
:10363000C8C1EE85E887A889BB27EE85F0E0AE0F0C
:10364000BF1FA138E0E0BE0720F0A889E0E8EA1B30
:10365000EE872D85AF85BB27ED85F0E0AE0FBF1F50
:10366000A134E0E0BE0720F0AF85E0E4EA1BED877F
:10367000A985A63009F05BC0EC85E13009F4A1C151
:10368000E33039F4E0917B02F0917C02309709F449
:1036900098C10885ED85E695E695E6953E2FE22FE3
:1036A000E77019F4AD852A17E9F0A02FBB27E32FA7
:1036B000F0E00E947D1EAA85BB850E940F1E269504
:1036C00026952695532F5F935F5FE22FAF91EA1700
:1036D00048F0102FE12F1150E03019F00E94141E15
:1036E000F9CFF1CFAE850A1711F1EE85AA85BB851A
:1036F000F0E00E940F1EED85E77009F03F5F20E0CB
:103700002F932F5FE32FAF91AE1788F41E851F9381
:103710001F5FE02FAF91AE1718F40E94141EF7CF71
:10372000EE85AE81BF81F0E00E940F1EE9CFEF85EC
:10373000E7703E2FED85E03009F443C1EA85FB8553
:10374000EE83FF8310E00889303009F065C0AD8555
:10375000A83008F45CC0E985E03011F0E33009F4EA
:1037600002C0E73009F402C0E83009F402C0E630D4
:1037700009F402C0E93009F402C0EA3021F40A93E6
:10378000E8890E94051E1F931F5FEE85AF91AE175B
:10379000B8F5A985A63061F461DE20DE0E94211E05
:1037A000FA93EA935BDEAE2F0E94CF1D39DE27C06D
:1037B000E985E93011F450E00EC0EA3011F45FEF12
:1037C0000AC00E94211E0E942A1E5E2FE985E73052
:1037D00011F0E83021F40E94301E5E2F06C0E33065
:1037E00011F4509502C0E03021F4A52F0E940B1E69
:1037F00006C00E94341EEFEFEA93AD85CEDEC3CF44
:10380000EF85E85FEF87ED85E850ED87D1C05D85F6
:1038100020E0E0E0ED877AC0E32FAD85AE0FA93060
:1038200020F42D85E0E0ED8703C0E8E0E31B2E2FB8
:103830003A93A22F0E947D1D4E2FE985E630F1F4C8
:103840001F931F5FEE85AF91AE17B8F40E943A1E2A
:10385000AE2FE32F0E94751E0E94411EE32FA42F5E
:103860000E94751EE095E1215E2B0E94211EFA93B5
:10387000EA93A52F0E94CF1DE3CF2CC0E93011F4AD
:1038800050E003C0EA30A9F45FEF0E94301EAE2F73
:10389000E32F0E946D1E5E2F1F931F5FEE85AF9179
:1038A000AE1730F40E94341E4A93A0E076DEF4CFC7
:1038B00011C01F931F5FEE85AF91AE1758F40E94A1
:1038C0004C1EAE2FE32F0E946D1EEA934A93AD85E6
:1038D00064DEEFCFED85E03009F473C0AD85A8302C
:1038E00028F4ED85E21B5E2FE0E003C0532FED8549
:1038F000E850ED8710E0EF85E85FEF87E8E0E31B35
:103900002E2F0889EA85FB85EE83FF83E52FF0E003
:10391000E859FD4C4491E985E630F1F41F931F5FAF
:10392000EE85AF91AE17B8F40E943A1EAE2FE22F8B
:103930000E946D1E0E94411EE22FA42F0E946D1E48
:10394000E095E1215E2B0E94211EFA93EA93A52FB8
:103950000E94CF1DE3CF2CC0E93011F450E003C02A
:10396000EA30A9F45FEF0E94301EAE2FE22F0E94D2
:10397000751E5E2F1F931F5FEE85AF91AE1730F45B
:103980000E94341E4A93A0E008DEF4CF11C01F93BA
:103990001F5FEE85AF91AE1758F40E944C1EAE2FFC
:1039A000E22F0E94751EEA934A93AD85F6DDEFCFB4
:1039B000E885AA85BB85F0E0EA0FFB1FEA87FB8755
:1039C000B9CE0E94D11E619608950E94591E1CF026
:1039D000E0E0F0E09BC0A881B981A038E0E0BE073C
:1039E0001CF0EFE7F0E092C0E881F9818FC00E94FF
:1039F000591E1CF0E0E0F0E089C0A881B981A03434
:103A0000E0E0BE071CF0EFE3F0E080C0E881F98160
:103A10007DC0AA931A93AA81A03818F4A981A03472
:103A200030F0E0E0F0E060E070E01881B6C0E981DD
:103A3000E7701E2FE981E695E695E695E98310305B
:103A400011F0EF5FE983AA81BB2788279927E981D5
:103A5000FF27662777270E94851EEC5FFF4F6F4F79
:103A60007F4F18819AC0AA930E94CC1EAC81A530CA
:103A700000F5ED81FE8105910E94601E15910E9466
:103A8000601E25910E94601E3591ED83FE83E885BE
:103A9000EA93E885EA930A932A93E1E0EA93EA85B8
:103AA000FB85FA93EA93AB85B3DD0A93A22FB1DFCE
:103AB00004C0E0E0F0E060E070E00E94D31E2996D0
:103AC0000895AA93A981BB2780DFE0936202A881B1
:103AD000BB278DDFE093630219C0BA93AA93B98123
:103AE000A881109631F0FC81EB816A816193119776
:103AF000E9F7EB81FC8125960895AA93E881F0E02F
:103B0000E859FD4CA491E9810E946D1E229608950A
:103B1000AA931A93E981E73011F0EA3019F4109171
:103B2000600209C0E93019F41091610204C0E83064
:103B3000A1F410917002E0916102E03049F0103080
:103B400019F0EFEF188129C0EA81E095188125C0AE
:103B5000103019F4E0E0188120C0EA8118811DC0FE
:103B6000BA93AA93EA81E13021F4E881F981E491E2
:103B700014C0E23029F4A881B9810E94A91E0DC0A9
:103B8000E33041F4A881B981E0917902F0917A02A1
:103B9000099503C0A881B981EC9123960895AA9351
:103BA000EB81E03029F4E881A981BA81EC9314C05B
:103BB000E23031F4E881A981BA810E94B51E0CC0BF
:103BC000E33051F4E981FA81FA93EA93AA81E09112
:103BD0007B02F0917C02099524960895E0E0EA9337
:103BE000EA930895FA93EA93A0E00E94331DA1E0BE
:103BF000B0E00E94631EF2CFC198EFEFEABBE8810C
:103C0000EBBB0E94BF190C94C319E695E695E695A7
:103C1000AE2F0C94001A0E94251A0C94101AEA0F69
:103C2000FB1FEE83FF830895EC85EA93EF81F8850F
:103C30003196EF83F8873197FA93EA93A0E00C94DA
:103C4000CF1DEC85EA93EF81F8853196EF83F887F5
:103C50003197089566277727DF01CB010C94B01DBB
:103C60005A93AA850C94881D0A930395E889EA93D0
:103C70005A9308950A930395A8890E94371AE4235A
:103C800008955E2FEC85EA93AF81B8858827992740
:103C90000E94B01D1E2E08950A930395E889EA93A9
:103CA000EE85EA93E985FA853196E987FA873197B7
:103CB000D1CFBA93AA93A881B9810E94C61E089554
:103CC000ED83FE830895109639F080ED97E001971B
:103CD000F1F7A8951197C9F70895EE230E2EEA2F54
:103CE00019F0EE0F0A94E9F70895EE230E2EEA2F4D
:103CF00019F0E6950A94E9F70895FA9FF02DEB9FE5
:103D0000F00DEA9FE02DF10D08957A9F702D6B9FC5
:103D1000700DF89F700DE99F700D6A9F602D710DF9
:103D2000FB9F600D711DE89F600D711D8827FA9F34
:103D3000F02D610D781FEB9FF00D611D781FEA9F3C
:103D4000E02DF10D681F781F0895ED91FC911197FA
:103D50000895E199FECFFF93FFB7F894AEBBBFBBC8
:103D6000E09AEDB3FFBFFF910895E19B02C0A895D3
:103D7000FCCF9FB7F894AEBBBFBBE09A8DB3E817FA
:103D800019F0EDBBE29AE19A9FBF089500240A164C
:103D90000B0608955A934A933A932A931A930A93D7
:103DA00008955D814C813B812A81198108810895A4
:00000001FF
